{
  "address": "0xCd2Ca09366a16b0Bc374874D7B9d45C54AcDa900",
  "abi": [
    {
      "inputs": [
        {
          "internalType": "contract UniswapV2",
          "name": "_uniswapV2",
          "type": "address"
        }
      ],
      "stateMutability": "nonpayable",
      "type": "constructor"
    },
    {
      "inputs": [],
      "name": "ETH_CONTRACT_ADDRESS",
      "outputs": [
        {
          "internalType": "contract IERC20",
          "name": "",
          "type": "address"
        }
      ],
      "stateMutability": "view",
      "type": "function"
    },
    {
      "inputs": [
        {
          "internalType": "address",
          "name": "srcToken",
          "type": "address"
        },
        {
          "internalType": "uint256",
          "name": "srcQty",
          "type": "uint256"
        },
        {
          "internalType": "address",
          "name": "destToken",
          "type": "address"
        }
      ],
      "name": "getAmountsOut",
      "outputs": [
        {
          "internalType": "uint256[]",
          "name": "",
          "type": "uint256[]"
        }
      ],
      "stateMutability": "view",
      "type": "function"
    },
    {
      "inputs": [
        {
          "internalType": "contract IERC20",
          "name": "srcToken",
          "type": "address"
        },
        {
          "internalType": "uint256",
          "name": "srcQty",
          "type": "uint256"
        },
        {
          "internalType": "contract IERC20",
          "name": "destToken",
          "type": "address"
        },
        {
          "internalType": "uint256",
          "name": "amountOutMin",
          "type": "uint256"
        }
      ],
      "name": "trade",
      "outputs": [
        {
          "internalType": "address",
          "name": "",
          "type": "address"
        },
        {
          "internalType": "uint256",
          "name": "",
          "type": "uint256"
        }
      ],
      "stateMutability": "payable",
      "type": "function"
    },
    {
      "inputs": [],
      "name": "uniswapV2",
      "outputs": [
        {
          "internalType": "contract UniswapV2",
          "name": "",
          "type": "address"
        }
      ],
      "stateMutability": "view",
      "type": "function"
    },
    {
      "inputs": [],
      "name": "wETH",
      "outputs": [
        {
          "internalType": "address",
          "name": "",
          "type": "address"
        }
      ],
      "stateMutability": "view",
      "type": "function"
    },
    {
      "stateMutability": "payable",
      "type": "receive"
    }
  ],
  "transactionHash": "0x6be7a71f958cad6cf33bcd08ccc73577550be56ef6ae6fdd672df0edafc474b8",
  "args": [
    "0x7a250d5630B4cF539739dF2C5dAcb4c659F2488D"
  ],
  "solcInputHash": "41ab1ad11db6b86fa47959e6916f2304",
  "bytecode": "0x608060405234801561001057600080fd5b506040516112893803806112898339818101604052602081101561003357600080fd5b8101908080519060200190929190505050806000806101000a81548173ffffffffffffffffffffffffffffffffffffffff021916908373ffffffffffffffffffffffffffffffffffffffff16021790555060008054906101000a900473ffffffffffffffffffffffffffffffffffffffff1673ffffffffffffffffffffffffffffffffffffffff1663ad5c46486040518163ffffffff1660e01b815260040160206040518083038186803b1580156100ea57600080fd5b505afa1580156100fe573d6000803e3d6000fd5b505050506040513d602081101561011457600080fd5b8101908080519060200190929190505050600160006101000a81548173ffffffffffffffffffffffffffffffffffffffff021916908373ffffffffffffffffffffffffffffffffffffffff16021790555050611114806101756000396000f3fe60806040526004361061004e5760003560e01c80635187c0911461005a57806372e94bf61461009b578063bb39a960146100dc578063cba7064f14610185578063f24286211461025557610055565b3661005557005b600080fd5b34801561006657600080fd5b5061006f610296565b604051808273ffffffffffffffffffffffffffffffffffffffff16815260200191505060405180910390f35b3480156100a757600080fd5b506100b06102ba565b604051808273ffffffffffffffffffffffffffffffffffffffff16815260200191505060405180910390f35b610152600480360360808110156100f257600080fd5b81019080803573ffffffffffffffffffffffffffffffffffffffff16906020019092919080359060200190929190803573ffffffffffffffffffffffffffffffffffffffff169060200190929190803590602001909291905050506102bf565b604051808373ffffffffffffffffffffffffffffffffffffffff1681526020018281526020019250505060405180910390f35b34801561019157600080fd5b506101fe600480360360608110156101a857600080fd5b81019080803573ffffffffffffffffffffffffffffffffffffffff16906020019092919080359060200190929190803573ffffffffffffffffffffffffffffffffffffffff16906020019092919050505061064a565b6040518080602001828103825283818151815260200191508051906020019060200280838360005b83811015610241578082015181840152602081019050610226565b505050509050019250505060405180910390f35b34801561026157600080fd5b5061026a6108c0565b604051808273ffffffffffffffffffffffffffffffffffffffff16815260200191505060405180910390f35b60008054906101000a900473ffffffffffffffffffffffffffffffffffffffff1681565b600081565b600080846102cc876108e6565b10156102d757600080fd5b8373ffffffffffffffffffffffffffffffffffffffff168673ffffffffffffffffffffffffffffffffffffffff16141561031057600080fd5b6060600267ffffffffffffffff8111801561032a57600080fd5b506040519080825280602002602001820160405280156103595781602001602082028036833780820191505090505b5090506060600073ffffffffffffffffffffffffffffffffffffffff168873ffffffffffffffffffffffffffffffffffffffff16146105105787826000815181106103a057fe5b602002602001019073ffffffffffffffffffffffffffffffffffffffff16908173ffffffffffffffffffffffffffffffffffffffff16815250506104058860008054906101000a900473ffffffffffffffffffffffffffffffffffffffff16896109ce565b600073ffffffffffffffffffffffffffffffffffffffff168673ffffffffffffffffffffffffffffffffffffffff161461049357858260018151811061044757fe5b602002602001019073ffffffffffffffffffffffffffffffffffffffff16908173ffffffffffffffffffffffffffffffffffffffff168152505061048c828887610b3d565b905061050b565b600160009054906101000a900473ffffffffffffffffffffffffffffffffffffffff16826001815181106104c357fe5b602002602001019073ffffffffffffffffffffffffffffffffffffffff16908173ffffffffffffffffffffffffffffffffffffffff1681525050610508828887610d0b565b90505b6105d0565b600160009054906101000a900473ffffffffffffffffffffffffffffffffffffffff168260008151811061054057fe5b602002602001019073ffffffffffffffffffffffffffffffffffffffff16908173ffffffffffffffffffffffffffffffffffffffff1681525050858260018151811061058857fe5b602002602001019073ffffffffffffffffffffffffffffffffffffffff16908173ffffffffffffffffffffffffffffffffffffffff16815250506105cd828887610ed9565b90505b6002815110156105df57600080fd5b84816001835103815181106105f057fe5b6020026020010151101580156106195750868160008151811061060f57fe5b6020026020010151145b61062257600080fd5b858160018351038151811061063357fe5b602002602001015193509350505094509492505050565b606080600267ffffffffffffffff8111801561066557600080fd5b506040519080825280602002602001820160405280156106945781602001602082028036833780820191505090505b50905084816000815181106106a557fe5b602002602001019073ffffffffffffffffffffffffffffffffffffffff16908173ffffffffffffffffffffffffffffffffffffffff168152505082816001815181106106ed57fe5b602002602001019073ffffffffffffffffffffffffffffffffffffffff16908173ffffffffffffffffffffffffffffffffffffffff168152505060008054906101000a900473ffffffffffffffffffffffffffffffffffffffff1673ffffffffffffffffffffffffffffffffffffffff1663d06ca61f85836040518363ffffffff1660e01b81526004018083815260200180602001828103825283818151815260200191508051906020019060200280838360005b838110156107bd5780820151818401526020810190506107a2565b50505050905001935050505060006040518083038186803b1580156107e157600080fd5b505afa1580156107f5573d6000803e3d6000fd5b505050506040513d6000823e3d601f19601f82011682018060405250602081101561081f57600080fd5b810190808051604051939291908464010000000082111561083f57600080fd5b8382019150602082018581111561085557600080fd5b825186602082028301116401000000008211171561087257600080fd5b8083526020830192505050908051906020019060200280838360005b838110156108a957808201518184015260208101905061088e565b505050509050016040525050509150509392505050565b600160009054906101000a900473ffffffffffffffffffffffffffffffffffffffff1681565b60008073ffffffffffffffffffffffffffffffffffffffff168273ffffffffffffffffffffffffffffffffffffffff161415610924574790506109c9565b8173ffffffffffffffffffffffffffffffffffffffff166370a08231306040518263ffffffff1660e01b8152600401808273ffffffffffffffffffffffffffffffffffffffff16815260200191505060206040518083038186803b15801561098b57600080fd5b505afa15801561099f573d6000803e3d6000fd5b505050506040513d60208110156109b557600080fd5b810190808051906020019092919050505090505b919050565b600073ffffffffffffffffffffffffffffffffffffffff168373ffffffffffffffffffffffffffffffffffffffff1614610b38578273ffffffffffffffffffffffffffffffffffffffff1663095ea7b38360006040518363ffffffff1660e01b8152600401808373ffffffffffffffffffffffffffffffffffffffff16815260200182815260200192505050600060405180830381600087803b158015610a7457600080fd5b505af1158015610a88573d6000803e3d6000fd5b50505050610a946110a0565b610a9d57600080fd5b8273ffffffffffffffffffffffffffffffffffffffff1663095ea7b383836040518363ffffffff1660e01b8152600401808373ffffffffffffffffffffffffffffffffffffffff16815260200182815260200192505050600060405180830381600087803b158015610b0e57600080fd5b505af1158015610b22573d6000803e3d6000fd5b50505050610b2e6110a0565b610b3757600080fd5b5b505050565b606060008054906101000a900473ffffffffffffffffffffffffffffffffffffffff1673ffffffffffffffffffffffffffffffffffffffff166338ed17398484873361025842016040518663ffffffff1660e01b815260040180868152602001858152602001806020018473ffffffffffffffffffffffffffffffffffffffff168152602001838152602001828103825285818151815260200191508051906020019060200280838360005b83811015610c04578082015181840152602081019050610be9565b505050509050019650505050505050600060405180830381600087803b158015610c2d57600080fd5b505af1158015610c41573d6000803e3d6000fd5b505050506040513d6000823e3d601f19601f820116820180604052506020811015610c6b57600080fd5b8101908080516040519392919084640100000000821115610c8b57600080fd5b83820191506020820185811115610ca157600080fd5b8251866020820283011164010000000082111715610cbe57600080fd5b8083526020830192505050908051906020019060200280838360005b83811015610cf5578082015181840152602081019050610cda565b5050505090500160405250505090509392505050565b606060008054906101000a900473ffffffffffffffffffffffffffffffffffffffff1673ffffffffffffffffffffffffffffffffffffffff166318cbafe58484873361025842016040518663ffffffff1660e01b815260040180868152602001858152602001806020018473ffffffffffffffffffffffffffffffffffffffff168152602001838152602001828103825285818151815260200191508051906020019060200280838360005b83811015610dd2578082015181840152602081019050610db7565b505050509050019650505050505050600060405180830381600087803b158015610dfb57600080fd5b505af1158015610e0f573d6000803e3d6000fd5b505050506040513d6000823e3d601f19601f820116820180604052506020811015610e3957600080fd5b8101908080516040519392919084640100000000821115610e5957600080fd5b83820191506020820185811115610e6f57600080fd5b8251866020820283011164010000000082111715610e8c57600080fd5b8083526020830192505050908051906020019060200280838360005b83811015610ec3578082015181840152602081019050610ea8565b5050505090500160405250505090509392505050565b606060008054906101000a900473ffffffffffffffffffffffffffffffffffffffff1673ffffffffffffffffffffffffffffffffffffffff16637ff36ab58484873361025842016040518663ffffffff1660e01b815260040180858152602001806020018473ffffffffffffffffffffffffffffffffffffffff168152602001838152602001828103825285818151815260200191508051906020019060200280838360005b83811015610f9a578082015181840152602081019050610f7f565b50505050905001955050505050506000604051808303818588803b158015610fc157600080fd5b505af1158015610fd5573d6000803e3d6000fd5b50505050506040513d6000823e3d601f19601f82011682018060405250602081101561100057600080fd5b810190808051604051939291908464010000000082111561102057600080fd5b8382019150602082018581111561103657600080fd5b825186602082028301116401000000008211171561105357600080fd5b8083526020830192505050908051906020019060200280838360005b8381101561108a57808201518184015260208101905061106f565b5050505090500160405250505090509392505050565b600080600090503d600081146110bd57602081146110c6576110d2565b600191506110d2565b60206000803e60005191505b5060008114159150509056fea26469706673582212209e32dc068408c91a7e47ef72a5926d20068181a300210ea90d8709ba6484d9fb64736f6c634300060c0033",
  "devdoc": {
    "kind": "dev",
    "methods": {
      "constructor": {
        "details": "Contract constructor",
        "params": {
          "_uniswapV2": "uniswap routes contract address"
        }
      },
      "getAmountsOut(address,uint256,address)": {
        "details": "Given an input asset amount and an array of token addresses, calculates all subsequent maximum output token.",
        "params": {
          "destToken": "destination token contract address",
          "srcQty": "amount of source tokens",
          "srcToken": "source token contract address"
        }
      }
    },
    "version": 1
  },
  "userdoc": {
    "kind": "user",
    "methods": {},
    "version": 1
  },
  "storageLayout": {
    "storage": [
      {
        "astId": 2554,
        "contract": "contracts/uniswap_trade.sol:UniswapV2Trade",
        "label": "uniswapV2",
        "offset": 0,
        "slot": "0",
        "type": "t_contract(UniswapV2)2550"
      },
      {
        "astId": 2556,
        "contract": "contracts/uniswap_trade.sol:UniswapV2Trade",
        "label": "wETH",
        "offset": 0,
        "slot": "1",
        "type": "t_address"
      }
    ],
    "types": {
      "t_address": {
        "encoding": "inplace",
        "label": "address",
        "numberOfBytes": "20"
      },
      "t_contract(UniswapV2)2550": {
        "encoding": "inplace",
        "label": "contract UniswapV2",
        "numberOfBytes": "20"
      }
    }
  }
}